:100000000C9437000C9443010C9443010C9443016D
:100010000C9443010C9443010C9443010C94430150
:100020000C9443010C9443010C9443010C94430140
:100030000C9443010C9443010C9443010C94430130
:100040000C9443010C9443010C9443010C94430120
:100050000C9443010C9416010C9443010C9443013D
:100060000C9443010C94430101000105800011240C
:100070001FBECFEFD8E0DEBFCDBFE8E6F0E040E046
:1000800017C0B591A59135912591059107FD0CC03B
:1000900095918591EF01F92FE82F05900D92A21708
:1000A000B307D9F7FE0104C01D92A217B307E1F709
:1000B000ED36F40731F70E94EA000C943401F8940D
:0200C000FFCF70
:1000C2003F065B4F666D7D077F67777C395E79718E
:1000D200CF93DF93AC018FEF85B91BB8C0E0D0E0BE
:1000E2008FEF85B925B163E070E06C1B7D0B81E079
:1000F20090E002C0880F991F6A95E2F780958223EB
:1001020085B99A01ADECBCEC0E94250196958795C4
:1001120096958795969587959C01220F331F880F98
:10012200991F880F991F880F991F820F931F9A0199
:10013200281B390BC901092E000CAA0B8E539F4FA5
:10014200AF4FFC018491A7FD80818BB920E030E0A4
:1001520008C08FEC97E00197F1F700C000002F5F15
:100162003F4F8091000190910101019628173907B4
:1001720080F321969A01ADECBCEC0E942501AC0102
:10018200569547955695479556954795411551056C
:0A01920009F0A6CFDF91CF91089588
:10019C0010920401ECE7F0E09081907F90839081C5
:1001AC00892B8083EAE7F0E08081806480838091F2
:1001BC0004018823E1F3209178008091790090E08C
:0801CC00982F8827822B08956B
:1001D4000E943F010E940601789480E00E94CE00B4
:1001E400909301018093000181E00E94CE002FEFE3
:1001F40033E0A901481B590BCA01509303014093F2
:0802040002010E946900E9CF2C
:10020C00ECE7F0E0808180648083EAE7F0E08081B5
:10021C008E688083EEE7F0E08081836080830895B0
:10022C001F920F920FB60F9211248F9381E080933F
:0E023C0004018F910F900FBE0F901F90189528
:10024A00A29FB001B39FC001A39F700D811D11240D
:0E025A00911DB29F700D811D1124911D0895FC
:10026800EC010E9448010E944701CE010E94490109
:06027800CE010E944501C9
:08027E008FEF84B98AB90895DD
:040286000C940000D4
:04028A000E945F006F
:02028E000895D1
:020290000895CF
:020292000895CD
:00000001FF
